{
  "contractName": "FRC",
  "abi": [
    {
      "inputs": [
        {
          "internalType": "uint256",
          "name": "",
          "type": "uint256"
        }
      ],
      "name": "scoutData",
      "outputs": [
        {
          "internalType": "uint256",
          "name": "robotNum",
          "type": "uint256"
        },
        {
          "internalType": "uint256",
          "name": "points",
          "type": "uint256"
        },
        {
          "internalType": "string",
          "name": "report",
          "type": "string"
        },
        {
          "internalType": "bool",
          "name": "win",
          "type": "bool"
        }
      ],
      "stateMutability": "view",
      "type": "function",
      "constant": true
    },
    {
      "inputs": [
        {
          "internalType": "uint256",
          "name": "",
          "type": "uint256"
        }
      ],
      "name": "scouters",
      "outputs": [
        {
          "internalType": "uint256",
          "name": "teamNum",
          "type": "uint256"
        },
        {
          "internalType": "uint256",
          "name": "matchNum",
          "type": "uint256"
        }
      ],
      "stateMutability": "view",
      "type": "function",
      "constant": true
    },
    {
      "inputs": [
        {
          "internalType": "uint256",
          "name": "_teamNum",
          "type": "uint256"
        },
        {
          "internalType": "uint256",
          "name": "_matchNum",
          "type": "uint256"
        }
      ],
      "name": "addScouter",
      "outputs": [],
      "stateMutability": "nonpayable",
      "type": "function"
    },
    {
      "inputs": [
        {
          "internalType": "uint256",
          "name": "_robotNum",
          "type": "uint256"
        },
        {
          "internalType": "uint256",
          "name": "_points",
          "type": "uint256"
        },
        {
          "internalType": "string",
          "name": "_report",
          "type": "string"
        },
        {
          "internalType": "bool",
          "name": "_win",
          "type": "bool"
        }
      ],
      "name": "addScoutData",
      "outputs": [],
      "stateMutability": "nonpayable",
      "type": "function"
    },
    {
      "inputs": [
        {
          "internalType": "uint256",
          "name": "index",
          "type": "uint256"
        }
      ],
      "name": "getScoutData",
      "outputs": [
        {
          "internalType": "uint256",
          "name": "",
          "type": "uint256"
        },
        {
          "internalType": "uint256",
          "name": "",
          "type": "uint256"
        },
        {
          "internalType": "string",
          "name": "",
          "type": "string"
        },
        {
          "internalType": "bool",
          "name": "",
          "type": "bool"
        }
      ],
      "stateMutability": "view",
      "type": "function",
      "constant": true
    }
  ],
  "bytecode": "0x608060405234801561001057600080fd5b50610a4d806100206000396000f3fe608060405234801561001057600080fd5b50600436106100575760003560e01c80631671b80e1461005c5780637f67f372146100785780639790c1c0146100a9578063a0ec0278146100c5578063c921d185146100f8575b600080fd5b61007660048036038101906100719190610592565b61012b565b005b610092600480360381019061008d91906105d2565b61018b565b6040516100a092919061060e565b60405180910390f35b6100c360048036038101906100be91906107b5565b6101bf565b005b6100df60048036038101906100da91906105d2565b61026c565b6040516100ef94939291906108cf565b60405180910390f35b610112600480360381019061010d91906105d2565b610341565b60405161012294939291906108cf565b60405180910390f35b60006040518060400160405280848152602001838152509050600081908060018154018082558091505060019003906000526020600020906002020160009091909190915060008201518160000155602082015181600101555050505050565b6000818154811061019b57600080fd5b90600052602060002090600202016000915090508060000154908060010154905082565b6000604051806080016040528086815260200185815260200184815260200183151581525090506001819080600181540180825580915050600190039060005260206000209060040201600090919091909150600082015181600001556020820151816001015560408201518160020190805190602001906102429291906104a5565b5060608201518160030160006101000a81548160ff02191690831515021790555050505050505050565b6001818154811061027c57600080fd5b90600052602060002090600402016000915090508060000154908060010154908060020180546102ab9061094a565b80601f01602080910402602001604051908101604052809291908181526020018280546102d79061094a565b80156103245780601f106102f957610100808354040283529160200191610324565b820191906000526020600020905b81548152906001019060200180831161030757829003601f168201915b5050505050908060030160009054906101000a900460ff16905084565b60008060606000600180549050851061038f576040517f08c379a0000000000000000000000000000000000000000000000000000000008152600401610386906109c8565b60405180910390fd5b6000600186815481106103a5576103a46109e8565b5b906000526020600020906004020160405180608001604052908160008201548152602001600182015481526020016002820180546103e29061094a565b80601f016020809104026020016040519081016040528092919081815260200182805461040e9061094a565b801561045b5780601f106104305761010080835404028352916020019161045b565b820191906000526020600020905b81548152906001019060200180831161043e57829003601f168201915b505050505081526020016003820160009054906101000a900460ff161515151581525050905080600001518160200151826040015183606001519450945094509450509193509193565b8280546104b19061094a565b90600052602060002090601f0160209004810192826104d3576000855561051a565b82601f106104ec57805160ff191683800117855561051a565b8280016001018555821561051a579182015b828111156105195782518255916020019190600101906104fe565b5b509050610527919061052b565b5090565b5b8082111561054457600081600090555060010161052c565b5090565b6000604051905090565b600080fd5b600080fd5b6000819050919050565b61056f8161055c565b811461057a57600080fd5b50565b60008135905061058c81610566565b92915050565b600080604083850312156105a9576105a8610552565b5b60006105b78582860161057d565b92505060206105c88582860161057d565b9150509250929050565b6000602082840312156105e8576105e7610552565b5b60006105f68482850161057d565b91505092915050565b6106088161055c565b82525050565b600060408201905061062360008301856105ff565b61063060208301846105ff565b9392505050565b600080fd5b600080fd5b6000601f19601f8301169050919050565b7f4e487b7100000000000000000000000000000000000000000000000000000000600052604160045260246000fd5b61068a82610641565b810181811067ffffffffffffffff821117156106a9576106a8610652565b5b80604052505050565b60006106bc610548565b90506106c88282610681565b919050565b600067ffffffffffffffff8211156106e8576106e7610652565b5b6106f182610641565b9050602081019050919050565b82818337600083830152505050565b600061072061071b846106cd565b6106b2565b90508281526020810184848401111561073c5761073b61063c565b5b6107478482856106fe565b509392505050565b600082601f83011261076457610763610637565b5b813561077484826020860161070d565b91505092915050565b60008115159050919050565b6107928161077d565b811461079d57600080fd5b50565b6000813590506107af81610789565b92915050565b600080600080608085870312156107cf576107ce610552565b5b60006107dd8782880161057d565b94505060206107ee8782880161057d565b935050604085013567ffffffffffffffff81111561080f5761080e610557565b5b61081b8782880161074f565b925050606061082c878288016107a0565b91505092959194509250565b600081519050919050565b600082825260208201905092915050565b60005b83811015610872578082015181840152602081019050610857565b83811115610881576000848401525b50505050565b600061089282610838565b61089c8185610843565b93506108ac818560208601610854565b6108b581610641565b840191505092915050565b6108c98161077d565b82525050565b60006080820190506108e460008301876105ff565b6108f160208301866105ff565b81810360408301526109038185610887565b905061091260608301846108c0565b95945050505050565b7f4e487b7100000000000000000000000000000000000000000000000000000000600052602260045260246000fd5b6000600282049050600182168061096257607f821691505b602082108114156109765761097561091b565b5b50919050565b7f496e76616c696420696e64657800000000000000000000000000000000000000600082015250565b60006109b2600d83610843565b91506109bd8261097c565b602082019050919050565b600060208201905081810360008301526109e1816109a5565b9050919050565b7f4e487b7100000000000000000000000000000000000000000000000000000000600052603260045260246000fdfea2646970667358221220659411bf655152670ebac3ab36d51431e29d764819463eae29b93da54491ae9d64736f6c63430008090033",
  "immutableReferences": {},
  "source": "// SPDX-License-Identifier: MIT\r\npragma solidity >=0.7.0 <0.9.0;\r\n\r\ncontract FRC {\r\n    struct Scouter {\r\n        uint teamNum;\r\n        uint matchNum;\r\n    }\r\n    \r\n    struct ScoutData {\r\n        uint robotNum;\r\n        uint points;\r\n        string report;\r\n        bool win;\r\n    }\r\n    \r\n    Scouter[] public scouters;\r\n    ScoutData[] public scoutData;\r\n    \r\n    function addScouter(uint _teamNum, uint _matchNum) public {\r\n        Scouter memory newScouter = Scouter(_teamNum, _matchNum);\r\n        scouters.push(newScouter);\r\n    }\r\n    \r\n    function addScoutData(uint _robotNum, uint _points, string memory _report, bool _win) public {\r\n        ScoutData memory newScoutData = ScoutData(_robotNum, _points, _report, _win);\r\n        scoutData.push(newScoutData);\r\n    }\r\n    \r\n    function getScoutData(uint256 index) public view returns (uint, uint, string memory, bool) {\r\n        require(index < scoutData.length, \"Invalid index\");\r\n        ScoutData memory scout = scoutData[index];\r\n        return (scout.robotNum, scout.points, scout.report, scout.win);\r\n    }\r\n}",
  "sourcePath": "C:\\Users\\Koal Marcione\\Desktop\\repos\\project-dapp-frc\\contracts\\FRC.sol",
  "compiler": {
    "name": "solc",
    "version": "0.8.9+commit.e5eed63a.Emscripten.clang"
  },
  "schemaVersion": "3.4.14",
  "updatedAt": "2023-06-12T17:14:55.519Z",
  "networkType": "ethereum",
  "devdoc": {
    "kind": "dev",
    "methods": {},
    "version": 1
  },
  "userdoc": {
    "kind": "user",
    "methods": {},
    "version": 1
  }
}