{
  "contractName": "FRC",
  "abi": [
    {
      "inputs": [],
      "stateMutability": "payable",
      "type": "constructor",
      "payable": true
    },
    {
      "inputs": [],
      "name": "scoutData",
      "outputs": [
        {
          "internalType": "uint256",
          "name": "robotNum",
          "type": "uint256"
        },
        {
          "internalType": "uint256",
          "name": "points",
          "type": "uint256"
        },
        {
          "internalType": "string",
          "name": "report",
          "type": "string"
        },
        {
          "internalType": "bool",
          "name": "win",
          "type": "bool"
        }
      ],
      "stateMutability": "view",
      "type": "function",
      "constant": true
    },
    {
      "inputs": [
        {
          "internalType": "uint256",
          "name": "_robotNum",
          "type": "uint256"
        },
        {
          "internalType": "uint256",
          "name": "_points",
          "type": "uint256"
        },
        {
          "internalType": "string",
          "name": "_report",
          "type": "string"
        },
        {
          "internalType": "bool",
          "name": "_win",
          "type": "bool"
        }
      ],
      "name": "addScouting",
      "outputs": [],
      "stateMutability": "nonpayable",
      "type": "function"
    },
    {
      "inputs": [],
      "name": "getScouting",
      "outputs": [
        {
          "internalType": "uint256",
          "name": "",
          "type": "uint256"
        },
        {
          "internalType": "uint256",
          "name": "",
          "type": "uint256"
        },
        {
          "internalType": "string",
          "name": "",
          "type": "string"
        },
        {
          "internalType": "bool",
          "name": "",
          "type": "bool"
        }
      ],
      "stateMutability": "view",
      "type": "function",
      "constant": true
    }
  ],
  "bytecode": "0x6080604052336000806101000a81548173ffffffffffffffffffffffffffffffffffffffff021916908373ffffffffffffffffffffffffffffffffffffffff1602179055506106e2806100536000396000f3fe608060405234801561001057600080fd5b50600436106100415760003560e01c80633f6e8754146100465780635782f442146100675780636e204bb014610088575b600080fd5b61004e6100a4565b60405161005e94939291906103db565b60405180910390f35b61006f610157565b60405161007f94939291906103db565b60405180910390f35b6100a2600480360381019061009d91906105c8565b61021b565b005b60018060000154908060010154908060020180546100c19061067a565b80601f01602080910402602001604051908101604052809291908181526020018280546100ed9061067a565b801561013a5780601f1061010f5761010080835404028352916020019161013a565b820191906000526020600020905b81548152906001019060200180831161011d57829003601f168201915b5050505050908060030160009054906101000a900460ff16905084565b6000806060600060016000015460018001546001600201600160030160009054906101000a900460ff1681805461018d9061067a565b80601f01602080910402602001604051908101604052809291908181526020018280546101b99061067a565b80156102065780601f106101db57610100808354040283529160200191610206565b820191906000526020600020905b8154815290600101906020018083116101e957829003601f168201915b50505050509150935093509350935090919293565b83600160000181905550826001800181905550816001600201908051906020019061024792919061026b565b5080600160030160006101000a81548160ff02191690831515021790555050505050565b8280546102779061067a565b90600052602060002090601f01602090048101928261029957600085556102e0565b82601f106102b257805160ff19168380011785556102e0565b828001600101855582156102e0579182015b828111156102df5782518255916020019190600101906102c4565b5b5090506102ed91906102f1565b5090565b5b8082111561030a5760008160009055506001016102f2565b5090565b6000819050919050565b6103218161030e565b82525050565b600081519050919050565b600082825260208201905092915050565b60005b83811015610361578082015181840152602081019050610346565b83811115610370576000848401525b50505050565b6000601f19601f8301169050919050565b600061039282610327565b61039c8185610332565b93506103ac818560208601610343565b6103b581610376565b840191505092915050565b60008115159050919050565b6103d5816103c0565b82525050565b60006080820190506103f06000830187610318565b6103fd6020830186610318565b818103604083015261040f8185610387565b905061041e60608301846103cc565b95945050505050565b6000604051905090565b600080fd5b600080fd5b6104448161030e565b811461044f57600080fd5b50565b6000813590506104618161043b565b92915050565b600080fd5b600080fd5b7f4e487b7100000000000000000000000000000000000000000000000000000000600052604160045260246000fd5b6104a982610376565b810181811067ffffffffffffffff821117156104c8576104c7610471565b5b80604052505050565b60006104db610427565b90506104e782826104a0565b919050565b600067ffffffffffffffff82111561050757610506610471565b5b61051082610376565b9050602081019050919050565b82818337600083830152505050565b600061053f61053a846104ec565b6104d1565b90508281526020810184848401111561055b5761055a61046c565b5b61056684828561051d565b509392505050565b600082601f83011261058357610582610467565b5b813561059384826020860161052c565b91505092915050565b6105a5816103c0565b81146105b057600080fd5b50565b6000813590506105c28161059c565b92915050565b600080600080608085870312156105e2576105e1610431565b5b60006105f087828801610452565b945050602061060187828801610452565b935050604085013567ffffffffffffffff81111561062257610621610436565b5b61062e8782880161056e565b925050606061063f878288016105b3565b91505092959194509250565b7f4e487b7100000000000000000000000000000000000000000000000000000000600052602260045260246000fd5b6000600282049050600182168061069257607f821691505b602082108114156106a6576106a561064b565b5b5091905056fea2646970667358221220b4614b8b35ec948e8562769b5b1ec9bbe57a4994de13a6675a574fc487a0d7d164736f6c63430008090033",
  "immutableReferences": {},
  "source": "// SPDX-License-Identifier: MIT\r\npragma solidity >=0.7.0 <0.9.0;\r\n\r\ncontract FRC {\r\n    address owner;\r\n\r\n    struct Scouter {\r\n        string name;\r\n        uint teamNum;\r\n        uint matchNum;\r\n        uint[] listIds;\r\n\r\n    }\r\n    \r\n    struct ScoutData {\r\n        uint robotNum;\r\n        uint points;\r\n        string report;\r\n        bool win;\r\n    }\r\n\r\n    constructor() payable public {\r\n        owner = msg.sender;\r\n    }\r\n\r\n    modifier onlyOwner {\r\n        require(msg.sender == owner);\r\n        _;\r\n    }\r\n    ScoutData public scoutData;\r\n\r\n    function addScouting(uint _robotNum, uint _points, string memory _report, bool _win) public {\r\n        scoutData.robotNum = _robotNum;\r\n        scoutData.points = _points;\r\n        scoutData.report = _report;\r\n        scoutData.win = _win;\r\n\r\n    }\r\n    \r\n    function getScouting() public view returns (uint, uint, string memory, bool) {\r\n        return (scoutData.robotNum, scoutData.points, scoutData.report, scoutData.win);\r\n    }\r\n    \r\n}",
  "sourcePath": "C:\\Users\\Koal Marcione\\Desktop\\repos\\project-dapp-frc\\contracts\\FRC.sol",
  "compiler": {
    "name": "solc",
    "version": "0.8.9+commit.e5eed63a.Emscripten.clang"
  },
  "schemaVersion": "3.4.14",
  "updatedAt": "2023-06-14T17:53:42.506Z",
  "networkType": "ethereum",
  "devdoc": {
    "kind": "dev",
    "methods": {},
    "version": 1
  },
  "userdoc": {
    "kind": "user",
    "methods": {},
    "version": 1
  }
}